{
  "contractName": "Counter",
  "abi": [
    {
      "inputs": [
        {
          "internalType": "uint256",
          "name": "x",
          "type": "uint256"
        }
      ],
      "stateMutability": "nonpayable",
      "type": "constructor"
    },
    {
      "inputs": [],
      "name": "counter",
      "outputs": [
        {
          "internalType": "uint256",
          "name": "",
          "type": "uint256"
        }
      ],
      "stateMutability": "view",
      "type": "function"
    },
    {
      "inputs": [],
      "name": "count",
      "outputs": [],
      "stateMutability": "nonpayable",
      "type": "function"
    }
  ],
  "bytecode": "0x608060405234801561000f575f80fd5b506040516101ed3803806101ed83398181016040528101906100319190610074565b805f819055505061009f565b5f80fd5b5f819050919050565b61005381610041565b811461005d575f80fd5b50565b5f8151905061006e8161004a565b92915050565b5f602082840312156100895761008861003d565b5b5f61009684828501610060565b91505092915050565b610141806100ac5f395ff3fe608060405234801561000f575f80fd5b5060043610610034575f3560e01c806306661abd1461003857806361bc221a14610042575b5f80fd5b610040610060565b005b61004a610075565b6040516100579190610092565b60405180910390f35b60015f5461006e91906100d8565b5f81905550565b5f5481565b5f819050919050565b61008c8161007a565b82525050565b5f6020820190506100a55f830184610083565b92915050565b7f4e487b71000000000000000000000000000000000000000000000000000000005f52601160045260245ffd5b5f6100e28261007a565b91506100ed8361007a565b9250828201905080821115610105576101046100ab565b5b9291505056fea2646970667358221220c99ed3e76eb1d252d978716be826270834b81301c44c3aa8e9008c5514e54a0c64736f6c63430008150033",
  "immutableReferences": {},
  "source": "// SPDX-License-Identifier: MIT\r\n\r\npragma solidity ^0.8.0;\r\n\r\ncontract Counter {\r\n    uint public counter;\r\n\r\n    constructor(uint x) {\r\n        counter = x;\r\n    }\r\n\r\n    function count() public {\r\n        counter = counter + 1;\r\n    }\r\n\r\n}",
  "sourcePath": "D:\\network\\web3\\denglian-blockchain\\train_coin\\w1_truffle\\contracts\\Counter.sol",
  "compiler": {
    "name": "solc",
    "version": "0.8.21+commit.d9974bed.Emscripten.clang"
  },
  "schemaVersion": "3.4.16",
  "updatedAt": "2024-05-20T14:07:37.279Z",
  "devdoc": {
    "kind": "dev",
    "methods": {},
    "version": 1
  },
  "userdoc": {
    "kind": "user",
    "methods": {},
    "version": 1
  }
}